:100000000C945C000C94BE010C9497010C94790044
:100010000C9479000C9479000C9479000C9479007C
:100020000C9479000C9479000C9479000C9479006C
:100030000C9479000C9479000C9479000C9479005C
:100040000C944D010C9479000C9479000C94790077
:100050000C9479000C9479000C9479000C9479003C
:100060000C9479000C947900000000080002010053
:100070000003040700000000000000000000000072
:10008000250028002B0000000000240027002A0083
:10009000040404040404040402020202020203032E
:1000A0000303030301020408102040800102040836
:1000B000102001020408102011241FBECFEFD8E049
:1000C000DEBFCDBF11E0A0E0B1E0E6E8F5E002C0A0
:1000D00005900D92A031B107D9F721E0A0E1B1E080
:1000E00001C01D92A931B207E1F70E94E5010C940D
:1000F000C1020C9400008091040190910501449785
:100100009093050180930401809104019091050171
:10011000449734F484E190E09093050180930401C6
:1001200008958091040190910501449690930501F2
:10013000809304018091040190910501893E9340D0
:1001400034F088EE93E090930501809304010895C4
:1001500090E0FC01E859FF4F2491FC01EC55FF4F62
:100160003491FC01E057FF4FE491EE23C9F02223C4
:1001700039F0233001F1A8F4213019F1223029F1AE
:10018000F0E0EE0FFF1FE458FF4FA591B4918FB739
:10019000F894EC91611126C030953E233C938FBFBB
:1001A00008952730A9F02830C9F0243049F780910C
:1001B00080008F7D03C0809180008F7780938000C6
:1001C000DFCF84B58F7784BDDBCF84B58F7DFBCF48
:1001D0008091B0008F778093B000D2CF8091B00033
:1001E0008F7DF9CF3E2BDACF3FB7F8948091150180
:1001F00090911601A0911701B091180126B5A89B06
:1002000005C02F3F19F00196A11DB11D3FBFBA2FA8
:10021000A92F982F8827BC01CD01620F711D811D68
:10022000911D42E0660F771F881F991F4A95D1F7ED
:1002300008958F929F92AF92BF92CF92DF92EF92EA
:10024000FF926B017C010E94F4004B015C01C11420
:10025000D104E104F104B9F00E94F40068197909AD
:100260008A099B09683E73408105910580F321E06E
:10027000C21AD108E108F10888EE880E83E0981EC2
:10028000A11CB11CE4CFFF90EF90DF90CF90BF9006
:10029000AF909F908F90089508951F920F920FB680
:1002A0000F9211242F933F938F939F93AF93BF93FC
:1002B0008091110190911201A0911301B09114014C
:1002C0003091100123E0230F2D3758F50196A11D21
:1002D000B11D209310018093110190931201A093FE
:1002E0001301B09314018091150190911601A09112
:1002F0001701B09118010196A11DB11D8093150140
:1003000090931601A0931701B0931801BF91AF917C
:100310009F918F913F912F910F900FBE0F901F9043
:10032000189526E8230F0296A11DB11DD2CF1F926A
:100330000F920FB60F9211242F933F934F935F9319
:100340006F937F938F939F93AF93BF93EF93FF939D
:10035000E0910201F09103010995FF91EF91BF91A6
:10036000AF919F918F917F916F915F914F913F914D
:100370002F910F900FBE0F901F9018951F920F9204
:100380000FB60F9211242F933F934F935F936F9368
:100390007F938F939F93AF93BF93EF93FF93E091DE
:1003A0000001F09101010995FF91EF91BF91AF918B
:1003B0009F918F917F916F915F914F913F912F917D
:1003C0000F900FBE0F901F901895789484B582609F
:1003D00084BD84B5816084BD85B5826085BD85B5E9
:1003E000816085BD80916E00816080936E00109267
:1003F00081008091810082608093810080918100E2
:100400008160809381008091800081608093800072
:100410008091B10084608093B1008091B0008160D0
:100420008093B00080917A00846080937A008091FC
:100430007A00826080937A0080917A008160809354
:100440007A0080917A00806880937A001092C100CF
:1004500000E111E0C6E0D1E0899199919927FC0172
:10046000EC55FF4F249180579F4FFC0184918823C6
:1004700099F090E0880F991FFC01EA57FF4FA59172
:10048000B491FC01E458FF4F859194918FB7F89493
:10049000EC91E22BEC938FBF60E0FE0132978081FC
:1004A0000E94A8000C171D07B9F684E190E0909314
:1004B0000501809304018BE790E090930101809304
:1004C000000180916900836080936900E89A81E966
:1004D00090E09093030180930201809169008C6009
:1004E00080936900E99A80E0E82E80E0F82E06E02B
:1004F00011E0D0E0C0E0F801D0800E5F1F4F61E056
:100500008D2D0E94A8006091040170910501072EB5
:10051000000C880B990B0E941901219660E0C530F0
:10052000D10539F58CE00E94A80000E111E0C4E09B
:10053000D0E002501109F801D08061E08D2D0E94B9
:10054000A8006091040170910501072E000C880B32
:10055000990B0E941901219760E0CF3FDC0769F4F5
:1005600088E00E94A800E114F10409F20E94000052
:10057000BECF8D2D0E94A800BECF8D2D0E94A80059
:06058000D8CFF894FFCF74
:100586004C014C011400080009000A000B000C0085
:00000001FF
